:100000000C9495000C94BD000C94BD000C94BD00A4
:100010000C94BD000C94BD000C94BD000C94BD006C
:100020000C94BD000C94BD000C94BD000C94BD005C
:100030000C94BD000C94BD000C94BD000C94BD004C
:100040000C94EC060C94BD000C943B050C94150527
:100050000C94BD000C94BD000C94BD000C94BD002C
:100060000C94BD000C94BD0041542B48454C4C4FA2
:10007000004F4B00494E56414C49440041542B4ED1
:100080004F4953450041542B4C4947485400415473
:100090002B445553540041542B48554D0041542B8B
:1000A00054454D50000000000023002600290004A4
:1000B000040404040404040202020202020303030F
:1000C0000303030102040810204080010204081009
:1000D0002001020408102041542B4C454400415497
:1000E0002B54484C440041542B455645525900412D
:1000F000542B434C41500041542B50555348000061
:10010000000000240027002A00000000002500282D
:10011000002B00000000080002010000030407009B
:100120000000000000000000060911241FBECFEFF0
:10013000D8E0DEBFCDBF11E0A0E0B1E0ECE3F2E239
:1001400002C005900D92AA32B107D9F722E0AAE2C7
:10015000B1E001C01D92A430B207E1F710E0C5E99B
:10016000D0E004C02197FE010E94090CC439D107D8
:10017000C9F70E9470090C941C110C9400008F9216
:100180009F92AF92BF92CF92DF92EF92FF92CF9366
:10019000DF93A0914201882311F03A2F01C030E093
:1001A0008091430190E0880F991F8B559F4FC0901D
:1001B0004801D0904901E0904A01F0904B0140E0A5
:1001C00050E0BA01FC01C591D49128812A23231360
:1001D0000FC04A015B012FEF821A920AA20AB20AEB
:1001E0004C155D056E057F0538F4B501A401EACF15
:1001F000342F252FCB0104C030E020E080E090E0D8
:10020000632F722FDF91CF91FF90EF90DF90CF900F
:10021000BF90AF909F908F900895E0914D01F09125
:100220004E010190F081E02D682F8DE491E009945A
:10023000CF93DF93FC016491EC0121968091EA0158
:100240009091EB01DC01ED91FC910190F081E02DAA
:10025000662319F00995CE01EDCF6091ED01DF9194
:10026000CF910994CF92DF92EF92FF920F931F9359
:10027000CF93DF93CDB7DEB7C054D1400FB6F8941B
:10028000DEBF0FBECDBF0E948A06009144011091CF
:10029000450120914601309147016B017C01C01A54
:1002A000D10AE20AF30A40EDC41647E0D406E1049D
:1002B000F10418F480914C01BCC060934401709328
:1002C0004501809346019093470110923F0110929F
:1002D0003E0110923D0110923C0110923B0161E001
:1002E000809140010E946D056AEF70E080E090E02F
:1002F0000E94500661E0809140010E94FD0560E08F
:10030000809140010E946D0564E170E080E090E022
:100310000E945006F89461E0809140010E946D05B2
:100320008BE990E00197F1F762E0809140010E9433
:10033000FD0583E290E00197F1F780E00E94BF00A5
:10034000672B682B692B21F410924C0178943EC0E6
:1003500081E00E94BF00672B682B692BA9F38E01F7
:100360000F5F1F4F6E018FEBC81A8EEFD80A78010E
:1003700080E00E94BF00F7016083718382839383D2
:1003800081E00E94BF00F7016483758386839783B1
:10039000F8E0EF0EF11CEC14FD0451F7789420E026
:1003A00030E0F8014081518162817381C480D58041
:1003B000E680F780411551056105710529F0C114EA
:1003C000D104E104F10421F410924C0180E031C029
:1003D000F90183E0F595E7958A95E1F7E55CFE4F35
:1003E0008081880F4C155D056E057F0508F48160DE
:1003F00080832F5F3F4F085F1F4F2832310589F6FA
:1004000020913F0130E040913B0180913C0190E020
:10041000840F911D40913D01840F911D40913E013B
:10042000840F911D99272817390771F681E0809371
:100430004C01C05CDE4F0FB6F894DEBF0FBECDBFDF
:10044000DF91CF911F910F91FF90EF90DF90CF90B0
:100450000895CF92DF92EF92FF92CF930E943201E4
:100460008823D1F1809141018B3029F0A8F1855189
:10047000823048F031C060913D0170E080E090E052
:100480000E94760F2DC0C0913D016C2F6F7770E0F8
:1004900080E090E00E94780F20E030E040E853E4F4
:1004A0000E94D70F6B017C0180913E01682F70E0A4
:1004B00080E090E00E94780F9B01AC01C701B6017B
:1004C0000E94100C2DEC3CEC4CEC5DE30E94D70F2D
:1004D000C7FF06C0905804C060E070E080EC9FE762
:1004E000CF91FF90EF90DF90CF900895CF92DF9261
:1004F000EF92FF920E9432018823A1F18091410185
:100500008B3041F178F18551823060F560913B018B
:1005100070E080E090E00E94760F20E030E040E85C
:1005200053E40E94D70F6B017C0180913C01682F3E
:1005300070E080E090E00E94780F9B01AC01C70161
:10054000B6010E94100C2DEC3CEC4CEC5DE30E94DB
:10055000D70F0CC060913B0170E080E090E00E94FA
:10056000760F04C060E070E080EC9FE7FF90EF90B2
:10057000DF90CF9008958F929F92AF92BF920F938A
:100580001F93CF93DF93CDB7DEB7A1970FB6F89443
:10059000DEBF0FBECDBF19A2423008F44AE08E0183
:1005A0000F5D1F4F842E912CA12CB12CA50194011D
:1005B0000E94EB10E62FB901CA0101501109EA307F
:1005C00014F4E05D01C0E95CD801EC93232B242BEB
:1005D000252B61F7B8018DE491E00E943607A196C2
:1005E0000FB6F894DEBF0FBECDBFDF91CF911F9144
:1005F0000F91BF90AF909F908F900895EF92FF92D0
:100600000F931F93CF93DF9300D000D0CDB7DEB709
:10061000EDB6FEB6DC010D900020E9F79D01281B28
:10062000390B275F3F4FADB7BEB7A21BB30B0FB659
:10063000F894BEBF0FBEADBF0DB71EB70F5F1F4F03
:100640007F936F932091EE01622F022E000C770BA7
:100650007F932F939F938F9384E191E09F938F9348
:100660001F930F934C830E94C00CB8018091EA0144
:100670009091EB010E9436078091EA019091EB0185
:10068000DC01ED91FC910190F081E02D6091ED0194
:10069000099511E04C811427EDB7FEB73A960FB6D5
:1006A000F894FEBF0FBEEDBF4423B1F023E030E06D
:1006B000AE014F5F5F4F6091ED018091EA01909133
:1006C000EB010E949606029739F489818F3421F458
:1006D0008A818B3409F411E0812F0FB6F894FEBEA5
:1006E0000FBEEDBE0F900F900F900F90DF91CF9146
:1006F0001F910F91FF90EF900895CF92DF92EF92AC
:10070000FF920F931F93CF93DF931F92CDB7DEB766
:100710006B01EDB6FEB6FC0121E030E0549131965C
:10072000552319F02F5F3F4FF9CF6DB77EB7621B8E
:10073000730B0FB6F8947EBF0FBE6DBF0DB71EB71B
:100740000F5F1F4FBC01C80149830E946A0F498196
:10075000B601C8010E94FE020FB6F894FEBE0FBE9D
:10076000EDBE0F90DF91CF911F910F91FF90EF9011
:10077000DF90CF900895CF93DF93BC018DE491E09B
:100780000E943607EC016BE171E08DE491E00E947C
:1007900036078C0F9D1FDF91CF910895CF92DF9286
:1007A000EF92FF920F931F93CF93DF936C017A0127
:1007B0008B01C0E0D0E0CE15DF0589F0D8016D9146
:1007C0008D01D601ED91FC910190F081E02DC601E3
:1007D0000995892B11F47E0102C02196ECCFC70147
:1007E000DF91CF911F910F91FF90EF90DF90CF900D
:1007F0000895FC01918D828D981761F0828DDF0143
:10080000A80FB11D5D968C91928D9F5F9F73928F03
:1008100090E008958FEF9FEF0895FC01918D828DF8
:10082000981731F0828DE80FF11D858D90E00895C5
:100830008FEF9FEF0895FC01918D228D892F90E01D
:10084000805C9F4F821B91098F73992708958DE4D7
:1008500091E00E941B0421E0892B09F420E0822F03
:100860000895FC01848DDF01A80FB11DA35ABF4F6D
:100870002C91848D90E001968F739927848FA6899F
:10088000B7892C93A089B1898C9180648C93938DC6
:10089000848D981306C00288F389E02D80818F7DB6
:1008A00080830895EF92FF920F931F93CF93DF936E
:1008B000EC0181E0888F9B8D8C8D981305C0E889B1
:1008C000F989808185FD24C0F62E0B8D10E00F5F25
:1008D0001F4F0F731127E02E8C8DE8120CC00FB63E
:1008E00007FCFACFE889F989808185FFF5CFCE0131
:1008F0000E943104F1CF8B8DFE01E80FF11DE35A08
:10090000FF4FF0820B8FEA89FB898081806207C0EC
:10091000EE89FF896083E889F9898081806480831A
:1009200081E090E0DF91CF911F910F91FF90EF90C8
:100930000895CF93DF93EC01888D8823C9F0EA896D
:10094000FB89808185FD05C0A889B9898C9186FDC8
:100950000FC00FB607FCF5CF808185FFF2CFA889C5
:10096000B9898C9185FFEDCFCE010E943104E7CF8C
:10097000DF91CF91089580E090E0892B29F00E94CB
:10098000270481110C9400000895833081F028F42D
:10099000813099F08230A1F008958730A9F0883035
:1009A000B9F08430D1F4809180008F7D03C08091B4
:1009B00080008F7780938000089584B58F7702C080
:1009C00084B58F7D84BD08958091B0008F7703C07A
:1009D0008091B0008F7D8093B00008953FB7F89468
:1009E0008091000290910102A0910202B091030255
:1009F00026B5A89B05C02F3F19F00196A11DB11D7A
:100A00003FBFBA2FA92F982F8827820F911DA11DB4
:100A1000B11DBC01CD0142E0660F771F881F991FF1
:100A20004A95D1F708950E94B20C1F920F920FB60B
:100A30000F9211242F933F934F935F936F937F9364
:100A40008F939F93AF93BF93EF93FF938DE491E0C8
:100A50000E943104FF91EF91BF91AF919F918F91CF
:100A60007F916F915F914F913F912F910F900FBEAA
:100A70000F901F9018951F920F920FB60F9211248E
:100A80002F938F939F93EF93FF93E0915D01F091EC
:100A90005E018081E0916301F091640182FD12C0EA
:100AA0009081809166018F5F8F732091670182171B
:100AB00051F0E0916601F0E0E35BFE4F958F80938B
:100AC000660101C08081FF91EF919F918F912F91DD
:100AD0000F900FBE0F901F9018951F93CF93DF9329
:100AE000282F30E0F901ED5EFE4F8491F901ED53BE
:100AF000FF4FD491F901E155FF4FC491CC23C9F0C8
:100B0000162F81110E94C504EC2FF0E0EE0FFF1F9D
:100B1000E75FFE4FA591B4918FB7F894111105C00E
:100B20009C91ED2FE095E92302C0EC91ED2BEC9325
:100B30008FBFDF91CF911F9108950F931F93CF9394
:100B4000DF938C01EB0167EF70E00E94610F892B4E
:100B500039F4C230D10520F4C170C093340145C0CE
:100B60006FEE70E0C8010E94610F892B39F4C2302A
:100B7000D10520F4C170C093FA0137C066EE70E071
:100B8000C8010E94610F892B99F4CE010597883224
:100B9000914070F428EE33E0C29FC001C39F900DD6
:100BA000D29F900D112490933A01809339011DC07A
:100BB0006EED70E0C8010E94610F892B41F4C536CB
:100BC000D10528F4D093F901C093F8010EC067ED68
:100BD00070E0C8010E94610F892B49F4C230D10531
:100BE00030F46C2F87E00E946D0581E001C080E049
:100BF000DF91CF911F910F910895CF93DF9390E0F4
:100C0000FC01ED53FF4F2491FC01E155FF4F84910E
:100C1000882361F190E0880F991FFC01E150FF4F9C
:100C2000C591D491FC01E75FFE4FA591B49161118C
:100C300009C09FB7F8948881209582238883EC911E
:100C40002E230BC0623061F49FB7F8943881822F55
:100C5000809583238883EC912E2B2C939FBF06C015
:100C60008FB7F894E8812E2B28838FBFDF91CF9127
:100C700008958E3008F08E508770806480937C00D9
:100C800080917A00806480937A0080917A0086FD5A
:100C9000FCCF809178002091790090E0922B08950C
:100CA0008F929F92AF92BF92CF92DF92EF92FF927C
:100CB0006B017C010E94EE044B015C01C114D10464
:100CC000E104F104F1F00E94EE04DC01CB0188198B
:100CD0009909AA09BB09883E9340A105B10570F3A3
:100CE00021E0C21AD108E108F10888EE880E83E0FD
:100CF000981EA11CB11CC114D104E104F10419F720
:100D0000DDCFFF90EF90DF90CF90BF90AF909F909E
:100D10008F9008952FB7F8946091FC017091FD01B8
:100D20008091FE019091FF012FBF08954F925F9235
:100D30006F927F92AF92BF92CF92DF92EF92FF922B
:100D40000F931F93CF93DF93EC0159017A0100E0D9
:100D500010E0C62E660FDD080A151B0569F10E941A
:100D60008A06688779878A879B87E881F981068068
:100D7000F781E02DCE01099597FD09C08C159D05E1
:100D8000D9F0F70181937F010F5F1F4FE5CF0E94DC
:100D90008A06488459846A847B84DC01CB018419E7
:100DA0009509A609B7094C805D806E807F80841507
:100DB0009505A605B705C8F2C801DF91CF911F912F
:100DC0000F91FF90EF90DF90CF90BF90AF907F900A
:100DD0006F905F904F9008951F920F920FB60F92F1
:100DE00011242F933F938F939F93AF93BF93809141
:100DF000FC019091FD01A091FE01B091FF013091A5
:100E0000FB0123E0230F2D3720F40196A11DB11D16
:100E100005C026E8230F0296A11DB11D2093FB01FA
:100E20008093FC019093FD01A093FE01B093FF011C
:100E30008091000290910102A0910202B091030200
:100E40000196A11DB11D8093000290930102A09311
:100E50000202B0930302BF91AF919F918F913F9196
:100E60002F910F900FBE0F901F901895611571056F
:100E700079F0FB0101900020E9F73197AF01461BA3
:100E8000570BDC01ED91FC910280F381E02D099478
:100E900080E090E008958F929F92AF92BF92CF92A0
:100EA000DF92EF92FF920F931F93CF93DF9380E136
:100EB000C82E87E2D82E00E010E030E020E09FE06E
:100EC000E92E97E2F92E812C912C5401C32FD22FB9
:100ED0000233110571F080E10E943906C817D90765
:100EE0000CF4EC018E159F050CF47C010F5F1F4F75
:100EF000EFCF3C2F2D2FCE018E199F09092E000C0C
:100F0000AA0BBB0B880E991EAA1EBB1E81E0C81A35
:100F1000D108E1F6C501B40121E137E240E050E03B
:100F20000E94EB1069017A014AE0C701B6010E94F4
:100F3000BB026BE171E08DE491E00E943607C601CF
:100F4000DF91CF911F910F91FF90EF90DF90CF90A5
:100F5000BF90AF909F908F900895CF92DF92EF92C5
:100F6000FF9260E089E00E946D058BE594E00197B7
:100F7000F1F78FE00E9439067C018BE990E0019740
:100F8000F1F761E089E00E946D05B701FF0C880B65
:100F9000990B0E94780F2BE734E14EE25EE30E944A
:100FA000D70F20E030E040EA5BE30E94D70F2DEC42
:100FB0003CEC4CEC5DE30E940F0C6B017C0120E0EB
:100FC00030E0A9010E94710F87FF03C0C12CD12C12
:100FD0007601C701B601FF90EF90DF90CF900895A2
:100FE000EF92FF920F931F93CF93DF93EC010E9438
:100FF000BB0367EF70E0CE010E94610F892B19F4EB
:101000006091340130C067ED70E0CE010E94610F45
:101010007C01892BF9F4EAE1F1E08491EAECF0E05B
:101020000491E6EBF0E01491112389F081110E9404
:10103000C504E12FF0E0EE0FFF1FEB55FF4FA59128
:10104000B491EC91E02319F0EE24E394F12C40E00C
:10105000B701CFC06FEE70E0CE010E94610F892B07
:1010600021F46091FA0170E0C3C06EED70E0CE0132
:101070000E94610F892B29F46091F8017091F901A8
:10108000B7C066EE70E0CE010E94610F892B49F473
:101090008091390190913A0168EE73E00E94E60B6D
:1010A000A7C06DE970E0CE010E94610F892BE9F4C1
:1010B0008091390190913A01892B51F40E942902C3
:1010C0006093350170933601809337019093380116
:1010D00020E030E040E251E460913501709136014A
:1010E000809137019091380155C066E970E0CE01DA
:1010F0000E94610F892B99F48091390190913A01F6
:10110000892B41F40E9476020E947C0C709333017B
:1011100060933201609132017091330169C06CE7D4
:1011200070E0CE010E94610F892B89F48091390112
:1011300090913A01892B31F40E944B0790932B0137
:1011400080932A0160912A0170912B0151C06EE8B1
:1011500070E0CE010E94610F892B09F58091390161
:1011600090913A01892B51F40E94AD0760932E01B2
:1011700070932F01809330019093310120E030E093
:1011800048EC52E460912E0170912F018091300162
:10119000909131010E94D70F0E947C0C29C065E814
:1011A00070E0CE010E94610F892B41F580913901D9
:1011B00090913A01892BC1F481E10E9439069C018A
:1011C000ACE9BFEF0E94FA0B20E034E040E050E0D1
:1011D0000E949510DA01C9018C599F4FAF4FBF4F44
:1011E00090932D0180932C0160912C0170912D0121
:1011F00040E0CE010E94FE0281E001C080E0DF916C
:10120000CF911F910F91FF90EF900895EDE4F1E0E1
:101210001382128288E091E09183808385EC90E0D4
:101220009587848784EC90E09787868780EC90E0B0
:10123000918B808B81EC90E0938B828B82EC90E0A1
:10124000958B848B86EC90E0978B868B118E128E1B
:10125000138E148EAAEEB1E01196FC93EE9381E00A
:1012600012968C9312978AE013968C9313978DE3C2
:1012700014968C9314978FE315968C931597179665
:101280001C921E92169719961C921E92189784E62D
:1012900090E0A0E0B0E084839583A683B783ABE3BE
:1012A000B1E086E015968C9315978BE016968C939B
:1012B0001697E9ECF0E0E4911796EC931797E5EBBD
:1012C000F0E0E4911896EC93189740E85EE360E054
:1012D00070E01D964D935D936D937C9350970895A8
:1012E000CF93DF93CDB7DEB7A0970FB6F894DEBFEC
:1012F0000FBECDBF789484B5826084BD84B5816013
:1013000084BD85B5826085BD85B5816085BD8091D0
:101310006E00816080936E00109281008091810048
:101320008260809381008091810081608093810040
:10133000809180008160809380008091B100846002
:101340008093B1008091B00081608093B000809163
:101350007A00846080937A0080917A008260809322
:101360007A0080917A00816080937A0080917A007F
:10137000806880937A001092C100E0915D01F09145
:101380005E0182E08083E0915901F0915A01108260
:10139000E0915B01F0915C0180E180831092650136
:1013A000E0916101F091620186E08083E0915F014C
:1013B000F0916001808180618083E0915F01F09114
:1013C0006001808188608083E0915F01F09160011D
:1013D000808180688083E0915F01F091600180816D
:1013E0008F7D80834091EC0161E070E088E690E0C1
:1013F0000E947D0380EF97E09093F1018093F001CC
:101400008DE995E09093F3018093F20161E087E02C
:101410000E94FD0560E087E00E946D0560E081E1CB
:101420000E94FD0560E086E00E94FD0561E089E024
:101430000E94FD0560E08FE00E94FD0562E080E112
:101440000E94FD0562E0809140010E94FD0580E35D
:1014500098EFAFEFBFEF8093440190934501A093C5
:101460004601B0934701CE0101967C018AE0382EF7
:101470008091EA019091EB01DC01ED91FC910480F7
:10148000F581E02D099502970CF4F2C02FE130E0D0
:10149000A7016091ED018091EA019091EB010E941A
:1014A00096068C01823091050CF4E2C0F701E80F3A
:1014B000F91F108267015601AE18BF08F60181912D
:1014C0006F01882339F09091EE01891719F00E947D
:1014D0000D01F1CF6EE171E08DE491E00E943607DD
:1014E0000A191B092801012E000C6608770817FF4E
:1014F0000CC08DE20E940D0166277727CB0164198D
:101500007509860997094AE003C04AE0C301B201A0
:101510000E94BB026BE171E08DE491E00E9436070E
:10152000023011050CF4A4C08DB69EB681E291E0A4
:101530000E94BB0385010F5F1F4F8DB79EB7801BB5
:10154000910B0FB6F8949EBF0FBE8DBFADB7BEB75F
:1015500011966D01A501B701CD010E94B70CF601EE
:10156000EA0DFB1D1082C6010E94BB030E0D1F1D5C
:10157000F801608170E080E090E04AE00E94BB02E8
:101580006BE171E08DE491E00E9436078091EF01FC
:101590000E940D016BE171E08DE491E00E9436073D
:1015A000D8012C9130E08091EF01082E000C990BAE
:1015B0002817390799F4E091F001F091F101309783
:1015C00009F451C0C60109959091EC01992309F4E1
:1015D0004AC0811148C084E790E043C083E291E0B3
:1015E0000E94BB03C6010E94BB03F801608170E04A
:1015F00080E090E04AE00E94BB026BE171E08DE484
:1016000091E00E9436078091EF010E940D016BE18D
:1016100071E08DE491E00E943607F80160E070E02F
:101620002191222369F0369EC001379E900D11242E
:10163000BC01620F711D27FD7A9560537109F0CFCF
:10164000E091F201F091F301309769F0C60109953C
:101650009091EC01992339F0882309F4BCCF81E7FC
:1016600090E00E9418010FB6F8949EBE0FBE8DBE8A
:101670000091390110913A010115110509F4A3C037
:101680000E948A068090F4019090F501A090F601E6
:10169000B090F701AB01BC01481959096A097B09EF
:1016A000C801A0E0B0E084179507A607B70728F0A7
:1016B00089288A288B2809F086C085E291E00E945B
:1016C000BB030E948A066093F4017093F501809336
:1016D000F6019093F7010E942902609335017093FF
:1016E00036018093370190933801209134012223F1
:1016F00069F020E030E040E251E40E94D70F0E9400
:101700007C0C40E08DE990E00E947D030E9476020F
:101710000E947C0C7093330160933201209134015C
:10172000222329F040E086E990E00E947D030E9498
:10173000AD0760932E0170932F0180933001909339
:10174000310120913401222369F020E030E048EC9F
:1017500052E40E94D70F0E947C0C40E08EE890E09B
:101760000E947D0381E10E9439069C01ACE9BFEF34
:101770000E94FA0B20E034E040E050E00E94951017
:10178000CA01B9016C597F4F8F4F9F4F70932D0144
:1017900060932C0120913401222329F040E085E858
:1017A00090E00E947D030E944B0790932B01809351
:1017B0002A0120913401222331F040E0BC018CE762
:1017C00090E00E947D030E94BB0452CEAA1BBB1B6B
:1017D00051E107C0AA1FBB1FA617B70710F0A61B31
:1017E000B70B881F991F5A95A9F780959095BC0152
:1017F000CD0108950E940D11332312F48A1B9B0B17
:101800000C94040C0E940D11B7FF0895821B930BDA
:101810000895EE0FFF1F0590F491E02D09945058A4
:10182000BB27AA270E94270C0C945B100E944D1026
:1018300038F00E94541020F039F49F3F19F426F438
:101840000C944A100EF4E095E7FB0C944410E92F39
:101850000E946C1058F3BA17620773078407950744
:1018600020F079F4A6F50C948E100EF4E0950B2E72
:10187000BA2FA02D0B01B90190010C01CA01A001E2
:101880001124FF27591B99F0593F50F4503E68F13D
:101890001A16F040A22F232F342F4427585FF3CF7E
:1018A000469537952795A795F0405395C9F77EF44F
:1018B0001F16BA0B620B730B840BBAF09150A1F098
:1018C000FF0FBB1F661F771F881FC2F70EC0BA0F1E
:1018D000621F731F841F48F4879577956795B795A6
:1018E000F7959E3F08F0B0CF9395880F08F09927A1
:1018F000EE0F9795879508950E94830C6894B11117
:101900000C948F1008950E94741088F09F5798F0DF
:10191000B92F9927B751B0F0E1F0660F771F881FF4
:10192000991F1AF0BA95C9F714C0B13091F00E940E
:101930008E10B1E008950C948E10672F782F8827B1
:10194000B85F39F0B93FCCF3869577956795B39535
:10195000D9F73EF490958095709561957F4F8F4FA4
:101960009F4F089581E090E0F8940C941C11FB01C6
:10197000DC0102C001900D9241505040D8F708950B
:10198000AEE0B0E0E6ECFCE00C94C2100D891E89DC
:1019900086E08C831A8309838FEF9FE79E838D8374
:1019A000AE01475E5F4F6F89788DCE0101960E9430
:1019B000E30C2F813885F801E20FF31F10822E9679
:1019C000E4E00C94DE10ACE0B0E0E9EEFCE00C9456
:1019D000B4107C016B018A01FC011782168283819D
:1019E00081FFBDC1CE0101964C01F7019381F60143
:1019F00093FD859193FF81916F01882309F4ABC119
:101A0000853239F493FD859193FF81916F01853281
:101A100029F4B70190E00E94CB0EE7CF512C312C76
:101A200020E02032A0F48B3269F030F4803259F09B
:101A3000833269F420612CC08D3239F0803339F45F
:101A4000216026C02260246023C0286021C027FDB9
:101A500027C030ED380F3A3078F426FF06C0FAE0A0
:101A60005F9E300D1124532E13C08AE0389E300D36
:101A70001124332E20620CC08E3221F426FD6BC15E
:101A8000206406C08C3611F4206802C0883641F408
:101A9000F60193FD859193FF81916F018111C1CF73
:101AA000982F9F7D9554933028F40C5F1F4FFFE3D0
:101AB000F9830DC0833631F0833771F0833509F037
:101AC0005BC022C0F801808189830E5F1F4F4424D0
:101AD0004394512C540115C03801F2E06F0E711C73
:101AE000F801A080B18026FF03C0652D70E002C020
:101AF0006FEF7FEFC5012C870E94C00E2C01830180
:101B00002C852F77222E17C03801F2E06F0E711C42
:101B1000F801A080B18026FF03C0652D70E002C0EF
:101B20006FEF7FEFC5012C870E94B50E2C012C852D
:101B30002068222E830123FC1BC0832D90E04816D1
:101B40005906B0F4B70180E290E00E94CB0E3A94BF
:101B5000F4CFF50127FC859127FE81915F01B70144
:101B600090E00E94CB0E31103A94F1E04F1A5108E8
:101B70004114510471F7E5C0843611F0893639F506
:101B8000F80127FF07C060817181828193810C5F1A
:101B90001F4F08C060817181072E000C880B990BC4
:101BA0000E5F1F4F2F76722E97FF09C0909580957C
:101BB000709561957F4F8F4F9F4F2068722E2AE05E
:101BC00030E0A4010E94030FA82EA81844C0853756
:101BD00029F42F7EB22E2AE030E025C0F22FF97FC3
:101BE000BF2E8F36C1F018F4883579F0B4C0803735
:101BF00019F0883721F0AFC02F2F2061B22EB4FE2C
:101C00000DC08B2D8460B82E09C024FF0AC09F2F01
:101C10009660B92E06C028E030E005C020E130E033
:101C200002C020E132E0F801B7FE07C06081718197
:101C3000828193810C5F1F4F06C06081718180E0BB
:101C400090E00E5F1F4FA4010E94030FA82EA8185A
:101C5000FB2DFF777F2E76FE0BC0372D3E7FA51420
:101C600050F474FE0AC072FC08C0372D3E7E05C0D9
:101C7000BA2C372D03C0BA2C01C0B52C34FF0DC0CF
:101C8000FE01EA0DF11D8081803311F4397E09C017
:101C900032FF06C0B394B39404C0832F867809F052
:101CA000B39433FD13C030FF06C05A2CB31418F49C
:101CB000530C5B18B32CB31468F4B70180E290E0C6
:101CC0003C870E94CB0EB3943C85F5CFB31410F43F
:101CD0003B1801C0312C34FF12C0B70180E390E003
:101CE0003C870E94CB0E3C8532FF17C031FD03C0FC
:101CF00088E790E002C088E590E0B7010CC0832F30
:101D0000867859F031FF02C08BE201C080E237FDD6
:101D10008DE2B70190E00E94CB0EA51438F4B70114
:101D200080E390E00E94CB0E5A94F7CFAA94F4017E
:101D3000EA0DF11D8081B70190E00E94CB0EA11049
:101D4000F5CF332009F451CEB70180E290E00E9434
:101D5000CB0E3A94F6CFF7018681978102C08FEFC0
:101D60009FEF2C96E2E10C94D010FC01059061509D
:101D700070400110D8F7809590958E0F9F1F0895A1
:101D8000FC016150704001900110D8F7809590954A
:101D90008E0F9F1F08950F931F93CF93DF93FB0127
:101DA000238121FD03C08FEF9FEF28C022FF16C0C3
:101DB00046815781248135814217530744F4A0811D
:101DC000B1819D012F5F3F4F318320838C9326810A
:101DD00037812F5F3F4F3783268310C0EB01092FD8
:101DE000182F0084F185E02D0995892BE1F68E816D
:101DF0009F8101969F838E83812F902FDF91CF91BA
:101E00001F910F910895FA01AA27283051F120312E
:101E100081F1E8946F936E7F6E5F7F4F8F4F9F4F7E
:101E2000AF4FB1E03ED0B4E03CD0670F781F891FC0
:101E30009A1FA11D680F791F8A1F911DA11D6A0F8E
:101E4000711D811D911DA11D20D009F468943F9141
:101E50002AE0269F11243019305D3193DEF6CF0140
:101E60000895462F4770405D4193B3E00FD0C9F706
:101E7000F6CF462F4F70405D4A3318F0495D31FD73
:101E80004052419302D0A9F7EACFB4E0A6959795C6
:101E9000879577956795BA95C9F70097610571059C
:101EA00008959B01AC010A2E0694579547953795E6
:101EB0002795BA95C9F7620F731F841F951FA01D40
:101EC0000895FB01DC018D91059080190110D9F373
:101ED000990B0895FB01DC0105900D920020E1F7BC
:101EE00008950E94B30F08F481E00895E89409C0B2
:101EF00097FB3EF490958095709561957F4F8F4F3D
:101F00009F4F9923A9F0F92F96E9BB279395F69552
:101F1000879577956795B795F111F8CFFAF4BB0FD0
:101F200011F460FF1BC06F5F7F4F8F4F9F4F16C034
:101F3000882311F096E911C0772321F09EE8872FBE
:101F4000762F05C0662371F096E8862F70E060E07A
:101F50002AF09A95660F771F881FDAF7880F9695F3
:101F6000879597F90895990F0008550FAA0BE0E897
:101F7000FEEF16161706E807F907C0F0121613064B
:101F8000E407F50798F0621B730B840B950B39F48B
:101F90000A2661F0232B242B252B21F408950A26F1
:101FA00009F4A140A6958FEF811D811D08950E941F
:101FB000EA0F0C945B100E944D1038F00E945410F0
:101FC00020F0952311F00C9444100C944A10112425
:101FD0000C948F100E946C1070F3959FC1F3950FB5
:101FE00050E0551F629FF001729FBB27F00DB11D9D
:101FF000639FAA27F00DB11DAA1F649F6627B00D2D
:10200000A11D661F829F2227B00DA11D621F739F15
:10201000B00DA11D621F839FA00D611D221F749F23
:102020003327A00D611D231F849F600D211D822F6A
:10203000762F6A2F11249F5750409AF0F1F0882391
:102040004AF0EE0FFF1FBB1F661F771F881F9150BE
:102050005040A9F79E3F510580F00C9444100C9419
:102060008F105F3FE4F3983ED4F38695779567959C
:10207000B795F795E7959F5FC1F7FE2B880F911DE8
:102080009695879597F9089597F99F6780E870E08E
:1020900060E008959FEF80EC089500240A941616DE
:1020A000170618060906089500240A941216130646
:1020B000140605060895092E0394000C11F48823D4
:1020C00052F0BB0F40F4BF2B11F460FF04C06F5FF0
:1020D0007F4F8F4F9F4F089557FD9058440F551FC6
:1020E00059F05F3F71F04795880F97FB991F61F09A
:1020F0009F3F79F087950895121613061406551F11
:10210000F2CF4695F1DF08C0161617061806991F7C
:10211000F1CF86957105610508940895E894BB2771
:1021200066277727CB0197F90895052E97FB1EF4B4
:1021300000940E94AC1057FD07D00E94EB1007FCE2
:1021400003D04EF40C94AC105095409530952195E9
:102150003F4F4F4F5F4F08959095809570956195D3
:102160007F4F8F4F9F4F08952F923F924F925F92D4
:102170006F927F928F929F92AF92BF92CF92DF9297
:10218000EF92FF920F931F93CF93DF93CDB7DEB7FC
:10219000CA1BDB0B0FB6F894DEBF0FBECDBF099490
:1021A0002A88398848885F846E847D848C849B84E7
:1021B000AA84B984C884DF80EE80FD800C811B81F5
:1021C000AA81B981CE0FD11D0FB6F894DEBF0FBE24
:1021D000CDBFED010895A1E21A2EAA1BBB1BFD0184
:1021E0000DC0AA1FBB1FEE1FFF1FA217B307E407F6
:1021F000F50720F0A21BB30BE40BF50B661F771F4E
:10220000881F991F1A9469F760957095809590952D
:102210009B01AC01BD01CF010895A29FB001B39F06
:10222000C001A39F700D811D1124911DB29F700DDF
:0C223000811D1124911D0895F894FFCF2A
:10223C0001000000000000005204CE031B04F9034F
:10224C000D049904257325632564000D0A003120C3
:0A225C0000320033004C6F6F700079
:107800000C94343C0C94513C0C94513C0C94513CE1
:107810000C94513C0C94513C0C94513C0C94513CB4
:107820000C94513C0C94513C0C94513C0C94513CA4
:107830000C94513C0C94513C0C94513C0C94513C94
:107840000C94513C0C94513C0C94513C0C94513C84
:107850000C94513C0C94513C0C94513C0C94513C74
:107860000C94513C0C94513C11241FBECFEFD8E036
:10787000DEBFCDBF11E0A0E0B1E0ECE9FFE702C060
:1078800005900D92A230B107D9F712E0A2E0B1E065
:1078900001C01D92AD30B107E1F70E942D3D0C945F
:1078A000CC3F0C94003C982F959595959595959582
:1078B000905D8F708A307CF0282F295A8091C0000B
:1078C00085FFFCCF9093C6008091C00085FFFCCF60
:1078D0002093C6000895282F205DF0CF982F809127
:1078E000C00085FFFCCF9093C6000895EF92FF92F1
:1078F0000F931F93EE24FF2487018091C00087FD22
:1079000017C00894E11CF11C011D111D81E4E8164B
:1079100082E4F8068FE0080780E0180770F3E09132
:107920000401F091050109958091C00087FFE9CF1E
:107930008091C6001F910F91FF90EF9008950E94D3
:10794000763C982F8091C00085FFFCCF9093C600B5
:1079500091362CF490330CF09053892F089597555D
:10796000892F08951F930E949F3C182F0E949F3CCF
:107970001295107F810F1F9108951F93182F882350
:1079800021F00E94763C1150E1F71F9108951F935A
:10799000182F0E94763C803249F0809103018F5F5E
:1079A000809303018530C1F01F9108958091C0003C
:1079B00085FFFCCF84E18093C6008091C00085FFE5
:1079C000FCCF1093C6008091C00085FFFCCF80E102
:1079D0008093C6001F910895E0910401F091050184
:1079E00009951F9108950E94763C803241F0809164
:1079F00003018F5F80930301853081F008958091AA
:107A0000C00085FFFCCF84E18093C6008091C00058
:107A100085FFFCCF80E18093C6000895E0910401CA
:107A2000F09105010995089540E951E08823A1F0FE
:107A30002D9A28EE33E0FA013197F1F721503040CA
:107A4000D1F72D9828EE33E0FA013197F1F7215064
:107A50003040D1F7815061F708953F924F925F9285
:107A60006F927F928F929F92AF92BF92CF92DF924E
:107A7000EF92FF920F931F93CF93DF93000080E16B
:107A80008093C4001092C50088E18093C10086E015
:107A90008093C2005098589A259A81E00E94143D24
:107AA00024E1F22E9EE1E92E85E9D82E0FE0C02ECA
:107AB00010E1B12EAA24A394B1E49B2EA6E58A2E50
:107AC000F2E57F2EE0E26E2E79E4572E63E5462E36
:107AD00050E5352E0E94763C8033B1F18133B9F107
:107AE000803409F46FC0813409F476C0823409F41B
:107AF00085C0853409F488C0803531F1823521F1A3
:107B0000813511F1853509F485C0863509F48DC0BC
:107B1000843609F496C0843709F403C1853709F423
:107B200072C1863709F466C0809103018F5F80932C
:107B30000301853079F6E0910401F0910501099582
:107B40000E94763C803351F60E94F33CC3CF0E94E2
:107B5000763C803249F78091C00085FFFCCFF092DF
:107B6000C6008091C00085FFFCCF9092C600809136
:107B7000C00085FFFCCF8092C6008091C00085FFC9
:107B8000FCCF7092C6008091C00085FFFCCF609250
:107B9000C6008091C00085FFFCCF5092C600809146
:107BA000C00085FFFCCF4092C6008091C00085FFD9
:107BB000FCCF3092C6008091C00085FFFCCFB09210
:107BC000C60088CF0E94763C863808F4BDCF0E945C
:107BD000763C0E94F33C7ECF0E94763C803809F4CC
:107BE0009CC0813809F40BC1823809F43CC1883942
:107BF00009F48FC080E00E94C73C6CCF84E10E94F2
:107C0000BD3C0E94F33C66CF85E00E94BD3C0E94D3
:107C1000F33C60CF0E94763C809306010E94763C44
:107C2000809307010E94F33C55CF0E94763C80333D
:107C300009F41DC183E00E94BD3C80E00E94C73C66
:107C400049CF0E94763C809309020E94763C809343
:107C5000080280910C028E7F80930C020E94763C79
:107C6000853409F415C18091080290910902892B8D
:107C700089F000E010E00E94763CF801E85FFE4FDA
:107C800080830F5F1F4F80910802909109020817AF
:107C9000190788F30E94763C803209F045CF809125
:107CA0000C0280FF01C16091060170910701660F0F
:107CB000771F7093070160930601A0910802B091AD
:107CC00009021097C9F0E8E0F1E09B01AD014E0F09
:107CD0005F1FF999FECF32BD21BD819180BDFA9A17
:107CE000F99A2F5F3F4FE417F50799F76A0F7B1F4B
:107CF00070930701609306018091C00085FFFCCF5F
:107D0000F092C6008091C00085FFFCCFB092C60003
:107D1000E1CE83E00E94C73CDDCE82E00E94C73CFA
:107D2000D9CE0E94763C809309020E94763C8093D3
:107D300008028091060190910701880F991F909386
:107D40000701809306010E94763C853409F4A6C0A1
:107D500080910C028E7F80930C020E94763C8032D0
:107D600009F0B8CE8091C00085FFFCCFF092C6002C
:107D7000609108027091090261157105B9F140E046
:107D800050E080910C02A82FA170B82FB27011C0E2
:107D9000BB2309F45CC0E0910601F0910701319624
:107DA000F0930701E09306014F5F5F4F46175707B7
:107DB000E8F4AA2369F3F999FECF209106013091E6
:107DC000070132BD21BDF89A90B58091C00085FFB2
:107DD000FCCF9093C6002F5F3F4F30930701209355
:107DE00006014F5F5F4F4617570718F38091C00099
:107DF00085FDE5CE8091C00085FFF8CFE0CE81E023
:107E00000E94C73C67CE0E94763C803209F08CCE3F
:107E10008091C00085FFFCCFF092C6008091C00029
:107E200085FFFCCFE092C6008091C00085FFFCCFAB
:107E3000D092C6008091C00085FFFCCFC092C600E2
:107E40008091C00085FFFCCFB092C60043CEE09188
:107E50000601F091070194918091C00085FFFCCF4D
:107E60009093C6009CCF80E10E94C73C33CE0E9415
:107E7000763C0E94763C182F0E94763C112309F430
:107E800083C0113009F484C08FE00E94C73C22CE29
:107E900080910C02816080930C02E5CE80910C02EF
:107EA000816080930C0259CF809107018823880F4D
:107EB000880B8A2180930B02809106019091070123
:107EC000880F991F90930701809306018091080203
:107ED00080FF09C080910802909109020196909359
:107EE000090280930802F894F999FECF1127E091D6
:107EF0000601F0910701C8E0D1E08091080290915D
:107F00000902103091F40091570001700130D9F34B
:107F100003E000935700E89500915700017001308D
:107F2000D9F301E100935700E89509901990009169
:107F3000570001700130D9F301E000935700E89534
:107F40001395103498F011270091570001700130FB
:107F5000D9F305E000935700E895009157000170B0
:107F60000130D9F301E100935700E895329602976A
:107F700009F0C7CF103011F00296E5CF112480919F
:107F8000C00085FFB9CEBCCE8EE10E94C73CA2CD19
:0C7F900085E90E94C73C9ECDF894FFCF0D
:027F9C00800063
:040000030000780081
:00000001FF
